:100000000C94F7150C9428160C9428160C942816AA
:100010000C9428160C9428160C9428160C94281668
:100020000C9428160C9428160C9428160C94281658
:100030000C9428160C94E3AA0C9428160C942816F9
:100040000C9428160C94F82A0C9428160C94281654
:100050000C9428160C9428160C94962A0C9499AAA1
:100060000C9428160C94D5720C94CB720C94281610
:100070000C9428160C9428160C9428160C94281608
:100080000C9428160C9428160C9428160C942816F8
:100090000C9428160C9428160C9428160C942816E8
:1000A0000C9428160C9428160C9428160C942816D8
:1000B0000C9428160C9428160C9428160C942816C8
:1000C0000C9428160C9428160C9428160C942816B8
:1000D0000C9428160C9428160C9428160C942816A8
:1000E0000C942816084AD73B3BCE016E84BCBFFD5A
:1000F000C12F3D6C74319ABD56833DDA3D00C77FF8
:1001000011BED9E4BB4C3E916BAAAABE0000008090
:100110003F05A84CCDB2D44EB93836A9020C50B91F
:10012000918688083CA6AAAA2ABE000000803F004B
:100130000C948DA90C947F430C940E900C94681B26
:100140000C94CB6F0C9474A90C94A5280C9423A93F
:100150000C94D21B0C94B5A90C9437A80C94EC8E7B
:100160000C9443900C940A6D0C94311C0C94FE1C5E
:100170000C9456A90C944C1C0C94C8310C9455A8A2
:100180000C945D390C944FA80C94213A0C94CD2812
:100190000C94FF6D0C94A3A80C94103C0C948A3121
:1001A0000C9403570C94F41D0C9433290C948B1C61
:1001B0000C943CA90C949B6F0C94AF280C9460A9F0
:1001C0000C94273A0C9447A80C94411B0C94E628F5
:1001D0000C9432A90C9458390C9462390C945D1F1C
:1001E0000C94FC1C0C94801B0C940F3A0C94781605
:1001F0000C94DA310C941D1D0C94E78F0C94021DA5
:100200000C94E8310C9445900C9428A80C944BA8BD
:100210000C94EC210C943F3A0C94393A0C94FA1E4D
:100220000C94AD550C946AA90C94361E0C940E4790
:100230000C94ED8E0C94181C0C94093A0C94D43147
:100240000C94FD6D0C944D1B0C9448340C94CE31E1
:100250000C9492310C94E98F0C9446BF0C94033AA1
:100260000C942CA80C9490340C94B28E0C940B1B10
:100270000C9428A90C942E1B0C940A1C0C94A1A974
:100280000C94001D0C94EA210C9416A80C94A41C48
:100290000C946C400C94741B0C94A8900C941EC885
:1002A0000C94FB6D0C9467A80C9441A80C941B3A19
:1002B0000C9430A80C94B6A80C94BB8F0C940C90A2
:1002C0000C94333A0C9463A80C945DA80C9492ABF4
:1002D0000C9415570C943DA80C945C480C94109009
:1002E0000C94AA280C9459A80C94F63A0C94A65590
:1002F0000C94081B0C94DF8E0C943F1E0C9483A965
:100300000C9411A80C94721C0C9497A90C940337AC
:100310000C94B4280C94FC6C0C949E740C94BF1B2D
:100320000C94ABA90C945F1C0C94F96D0C94C23E18
:100330000C94F71B0C9434A80C9468900C94479080
:100340000C94561B0C946A900C94A0280C941BA936
:100350000C944EA90C94C03C0C947E1B0C94024649
:100360000C9491440C9446A90C9442340C942D3A6C
:100370000C94DE1B0C948B3D0C94411F0C94E31CDD
:100380000C946C900C94153A0C9471344E414E4977
:100390004E495459494E46CDCCCC3D0AD7233C1743
:1003A000B7D13877CC2B329595E6241FB14F0A0090
:1003B0000020410000C84200401C4620BCBE4CCA80
:1003C0001B0E5AAEC59D7400407A10F35A00A072FD
:1003D0004E18090010A5D4E80000E8764817000080
:1003E000E40B54020000CA9A3B000000E1F505004E
:1003F0000080969800000040420F000000A0860197
:10040000000000102700000000E803000000006466
:1004100000000000000A00000000000100000000D1
:10042000002C76D888DC674F0823DFC1DFAE59E1A6
:10043000B1B796E5E3E453C63AE651997696E8E615
:10044000C28426EB898C9B62ED407C6FFCEFBC9CE8
:100450009F40F2BAA56FA5F490055A2AF75C936BFA
:100460006CF9676DC11BFCE0E40D47FEF520E6B5B5
:1004700000D0ED902E0300943577050080841E088F
:100480000000204E0A000000C80C333333330F98AD
:100490006E12831141EF8D2114893BE65516CFFE74
:1004A000E6DB18D1844B381BF77C1D901DA4BBE400
:1004B00024203284725E228100C9F124ECA1E53D42
:1004C00027434F4D4D554E49434154494F4E0044EB
:1004D000525952554E004552524F525300494E46C2
:1004E0004F004543484F0041425300504C41004D9E
:1004F000343130004D313132004D313038005354F9
:100500004F505045442E20005072696E7465722021
:1005100073746F707065642064756520746F2065F6
:1005200072726F72732E2046697820746865206538
:1005300072726F7220616E6420757365204D393957
:100540003920746F20726573746172742E20285480
:10055000656D70657261747572652069732072656E
:100560007365742E20536574206974206166746508
:10057000722072657374617274696E67290A004E25
:100580006F20436865636B73756D207769746820AD
:100590006C696E65206E756D6265722C204C61739E
:1005A00074204C696E653A2000636865636B7375EF
:1005B0006D206D69736D617463682C204C61737478
:1005C000204C696E653A20004C696E65204E756D51
:1005D000626572206973206E6F74204C61737420A1
:1005E0004C696E65204E756D6265722B312C204C06
:1005F000617374204C696E653A20004D31313000D2
:1006000053442072656164206572726F720A002122
:1006100021204B494C4C20636175736564206279DD
:10062000204B494C4C20627574746F6E2F70696E4C
:100630000A002121204B494C4C206361757365648D
:1006400020627920746F6F206D75636820696E6118
:1006500063746976652074696D65202D20637572F9
:1006600072656E7420636F6D6D616E643A20006216
:100670007573793A2070617573656420666F7220B6
:10068000696E7075740A00627573793A20706175CD
:1006900073656420666F7220757365720A006275F7
:1006A00073793A2070726F63657373696E670A00BD
:1006B0004D656469612052656D6F766564004D65B6
:1006C00064696120496E73657274656400506C657D
:1006D000617365205265736574005052494E5445EC
:1006E000522048414C5445440025533A202553009C
:1006F0004B494C4C45442E20005072696E74657213
:100700002068616C7465642E206B696C6C282920EC
:1007100063616C6C6564210A006563686F3A00452B
:1007200072726F723A0020496E76616C696420655E
:1007300078747275646572200047322F47332062E7
:10074000616420706172616D65746572730A005333
:100750006C6565702E2E2E00436C69636B20746F80
:1007600020526573756D652E2E2E004E6F204D6FD5
:1007700076652E00456E642066696C65206C697331
:10078000740A00426567696E2066696C65206C6951
:1007900073740A004E6F206D656469610A00286EEB
:1007A0006F2066696C65290043757272656E7420EE
:1007B00066696C653A20005344207072696E7469F2
:1007C0006E67206279746520004E6F742053442058
:1007D0007072696E74696E670A0044656C6574694D
:1007E0006F6E206661696C65642C2046696C653AA1
:1007F000200046696C652064656C657465643A0028
:1008000025697920256964202569682025696D207E
:10081000256973005072696E742074696D653A20A1
:100820000020573A00436F6F6C696E672E2E2E00C2
:1008300048656174696E672E2E2E00452025530091
:100840006F66660044454255473A004D31313220CB
:1008500053687574646F776E004D313133205300E7
:100860003344205072696E746572204F46462E00E4
:100870004348414D4245525F54454D5045524154C5
:1008800055524500424142595354455050494E47F4
:100890000041524353004D4F54494F4E5F4D4F441A
:1008A000455300544845524D414C5F50524F5445BA
:1008B0004354494F4E004C4F4E475F46494C454EBE
:1008C000414D45004155544F5245504F52545F538E
:1008D000445F5354415455530053444341524400E0
:1008E00050524F4D50545F535550504F5254004545
:1008F0004D455247454E43595F5041525345520072
:10090000434153455F4C494748545F425249474829
:10091000544E45535300544F47474C455F4C49474D
:1009200048545300534F4654574152455F504F5718
:100930004552004255494C445F50455243454E5440
:10094000004C4556454C494E475F44415441005A7E
:100950005F50524F42450052554E4F55540041553D
:10096000544F4C4556454C005052494E545F4A4FE7
:10097000420050524F4752455353004155544F5235
:1009800045504F52545F54454D5000564F4C554DB5
:10099000455452494300454550524F4D0042494E3F
:1009A0004152595F46494C455F5452414E5346456A
:1009B000520053455249414C5F584F4E5F584F4685
:1009C00046004649524D574152455F4E414D453ACA
:1009D0004D61726C696E20322E302E372E322028F7
:1009E00044656320313320323032322032313A31A3
:1009F000333A31312920534F555243455F434F44D9
:100A0000455F55524C3A68747470733A2F2F67697A
:100A1000746875622E636F6D2F4D61726C696E46DE
:100A200069726D776172652F4D61726C696E2050CD
:100A3000524F544F434F4C5F56455253494F4E3AD5
:100A4000312E30204D414348494E455F5459504561
:100A50003A3344205072696E74657220455854527E
:100A6000554445525F434F554E543A3120555549F0
:100A7000443A63656465326132662D343161322DEA
:100A8000343734382D396231322D6335356336329F
:100A90006633363766660A002F2F20004D31343515
:100AA00020533C696E6465783E206F7574206F66D4
:100AB0002072616E67652028302D31290A0020528E
:100AC00000416363656C65726174696F6E3A2050B2
:100AD000003F4A206F7574206F662072616E6765F3
:100AE0002028302E303120746F20302E33290A0018
:100AF00020204D61783A200020204D696E3A200078
:100B0000536F667420656E6473746F70733A20005F
:100B100046523A0020466C6F773A200020643A0033
:100B200020693A0020703A00496E76616C69642051
:100B300065787472756465720A006469730043298C
:100B40000A0061626C656420286D696E2074656DB1
:100B5000702000436F6C64206578747275646573EF
:100B6000206172652000486F6D652025732573250F
:100B700073204669727374004F66667365747320E0
:100B80004170706C696564004572723A20546F6FF1
:100B9000206661722100546F6F2066617220667258
:100BA0006F6D207265666572656E636520706F6932
:100BB0006E740A00454550524F4D2064697361625E
:100BC0006C65640A004D383400446F6E65207072A5
:100BD000696E74696E672066696C650A004D373707
:100BE000004D3331004361703A00656E7175657573
:100BF00065696E672022006F6B00526573656E64D5
:100C00003A200023646566696E6520444546415577
:100C10004C545F004B6420004B6920004B70200057
:100C2000504944204175746F74756E652066696E15
:100C30006973686564212050757420746865206C40
:100C4000617374204B702C204B6920616E64204BC3
:100C50006420636F6E7374616E74732066726F6D5F
:100C60002062656C6F7720696E746F20436F6E66CB
:100C7000696775726174696F6E2E680A0050494425
:100C8000204175746F74756E65206661696C65646A
:100C9000212074696D656F75740A005049442041C4
:100CA00075746F74756E65206661696C656421206A
:100CB00054656D706572617475726520746F6F2014
:100CC000686967680A00204B643A2000204B693A43
:100CD0002000204B703A20000A20436C6173736936
:100CE0006320504944200A002054753A2000204BCC
:100CF000753A2000206D61783A2000206D696E3AC7
:100D0000200020643A200020626961733A2000507C
:100D10004944204175746F74756E652073746172F7
:100D2000740A00504944204175746F74756E6500F3
:100D3000504944204175746F74756E652066616911
:100D40006C65642120426164206578747275646505
:100D500072206E756D6265720A002D2D2D2D2D2D60
:100D6000007C4D61726C696E7C0042656400456E6A
:100D7000636C6F737572650046696C2E20446961FF
:100D80002E004520696E206D6DC2B3002002204602
:100D9000616374002002204D6178002002204D69BB
:100DA0006E004175746F74656D7000565472617693
:100DB000204D696E00566D696E00566D6178204554
:100DC00000566D6178205A00566D617820590056A2
:100DD0006D6178205800416D6178204500416D615A
:100DE00078205A00416D6178205900416D6178206A
:100DF0005800412D54726176656C00412D52657426
:100E00007261637400416363656C004520737465AF
:100E100070732F6D6D005A2053746570732F6D6D54
:100E200000592053746570732F6D6D0058205374F2
:100E30006570732F6D6D00416476616E636564202B
:100E400053657474696E6773004D343238004669B7
:100E50006C616D656E740054656D7065726174755A
:100E60007265004A756E6374696F6E204465760022
:100E7000416363656C65726174696F6E0056656C81
:100E80006F636974790053657420486F6D65204FF6
:100E900066667365747300436F6E66696775726129
:100EA00074696F6E004E6F7A7A6C650046616E20D1
:100EB000537065656400526573746F726520446594
:100EC0006661756C74730050726568656174202486
:100ED00020436F6E66004D61696E003F00426163A2
:100EE0006B0053746F70004368616E6765204D65D9
:100EF000646961004D3231004C6173657220436F4B
:100F00006E74726F6C004D6F74696F6E0052657312
:100F1000756D65205072696E74004E6F204D65646A
:100F200069610054756E650053746F70205072696A
:100F30006E74005061757365205072696E7400495B
:100F40006E666F2053637265656E005374617274D0
:100F5000205072696E740043616E63656C0043617A
:100F60006E6E6F7420656E7465722073756264694D
:100F7000723A2000052E2E00486F74656E6420744E
:100F80006F6F20636F6C640050726F6365656400FF
:100F900044697361626C6520537465707065727327
:100FA000004175746F20486F6D6500473238004C02
:100FB00061736572204F6E004C61736572204F66DD
:100FC00066004C6173657220506F77657200436FE5
:100FD0006F6C646F776E0050726568656174202471
:100FE00000466C6F77002568753A253032687500C9
:100FF00025303268753A2530326875005344002038
:10100000202020202020005072696E742041626FE1
:1010100072746564004D32350050617573696E6796
:101020002E2E2E006F70656E005452494747455270
:101030004544007A5F6D696E00795F6D696E007876
:101040005F6D696E005265706F7274696E672065BE
:101050006E6473746F70207374617475730A0048E2
:101060006F6D696E67204661696C656400576172D7
:101070006E696E673A20486F6D696E672042756DC4
:10108000702044697669736F72203C20310A0048F1
:10109000617264636F6465642044656661756C7435
:1010A0002053657474696E6773204C6F6164656466
:1010B0000A003B200020440020490020204D33300E
:1010C000312050005049442073657474696E677311
:1010D0003A0020460020480020204D31343520536E
:1010E000004D6174657269616C206865617475702A
:1010F00020706172616D65746572733A0020204DD5
:10110000323036205800486F6D65206F6666736513
:10111000743A00204A0020204D32303520420041F0
:101120006476616E6365643A20423C6D696E5F73FC
:1011300065676D656E745F74696D655F75733E207C
:10114000533C6D696E5F66656564726174653E20CF
:10115000543C6D696E5F74726176656C5F6665653F
:1011600064726174653E204A3C6A756E635F6465B3
:10117000763E0020540020204D3230342050004173
:101180006363656C65726174696F6E2028756E6942
:1011900074732F7332293A20503C7072696E745FF9
:1011A000616363656C3E20523C7265747261637466
:1011B0005F616363656C3E20543C74726176656C5C
:1011C0005F616363656C3E0020204D3230312058F2
:1011D000004D6178696D756D20416363656C657262
:1011E0006174696F6E2028756E6974732F7332296C
:1011F0003A0020204D3230332058004D6178696D1F
:10120000756D206665656472617465732028756EFE
:101210006974732F73293A00537465707320706575
:101220007220756E69743A0020204D3230302053A0
:10123000002044697361626C65640A0046696C61F0
:101240006D656E742073657474696E67733A0020FF
:10125000204D3134392043203B20556E6974732072
:10126000696E2043656C736975730A0020286D6D83
:1012700029002020473231202020203B20556E6954
:10128000747320696E206D6D0020436F756E74203D
:10129000583A00544845524D414C2052554E415702
:1012A000415900546865726D616C2052756E6177AA
:1012B00061790048656174696E67204661696C6593
:1012C000640048656174696E67206661696C656475
:1012D000004572723A204D415854454D50004D41E1
:1012E0005854454D50207472696767657265640093
:1012F0004572723A204D494E54454D50004D494E6D
:1013000054454D50207472696767657265640020AA
:101310002F0020403A00E204DD04D604CF04C104CB
:10132000A10000006900A20000006300B0000000FE
:101330000900C10000004100C20000004100C300DC
:1013400000004100C40000004100C5000000410051
:10135000C60000004145C70000004300C80000006F
:101360004500C90000004500CD0000004900D10043
:1013700000004E00D50000004F00D60000004F00D6
:10138000D70000007800DC0000005500DD00000000
:101390005900E00000006100E10000006100E2008F
:1013A00000006100E30000006100E4000000610053
:1013B000E50000006100E60000006165E700000054
:1013C0006300E80000006500E90000006500EA0035
:1013D00000006500EB0000006500EC000000690003
:1013E000ED0000006900EE0000006900EF00000061
:1013F0006900F10000006E00F20000006F00F300D1
:1014000000006F00F40000006F00F50000006F00A6
:10141000F60000006F00F80000006F00F900000007
:101420007500FA0000007500FB0000007500FC006C
:1014300000007500FD0000007900FF000000790049
:1014400004010000410005010000610006010000E8
:1014500043000701000063000C01000043000D0180
:10146000000063000E01000044000F010000640052
:101470001101000064001901000065001A0100005C
:1014800045001B01000065001F01000067003001DE
:1014900000004900310100006900410100004C00DA
:1014A000420100006C00430100004E0044010000B6
:1014B0006E00480100006E00580100005200590102
:1014C000000072005A01000053005B01000073002D
:1014D0005F01000073006001000053006101000023
:1014E00073006501000074006F01000075007C014D
:1014F00000007A007D0100005A007E0100007A00A1
:10150000920100006600E302000078002220000043
:101510002E001E210000507822210000544D902101
:1015200000003C2D922100002D3EB0210000030060
:10153000BB21000004003C2200007E004822000085
:101540007E3D60220000213D612200003D006422BA
:1015500000003C3D652200003E3DF12300000700F5
:10156000A03000003D0021F301000200C2F40100A0
:101570000500A2000000EC00B0000000DF00E40065
:101580000000E100F6000000EF00F7000000FD00A1
:10159000FC000000F500E3020000EB008703000000
:1015A000A5008F030000F40098030000F2009E03E2
:1015B0000000E300A3030000F600A9030000F4000C
:1015C000AC030000E000AD030000E300B103000045
:1015D000E000B2030000E200B5030000E300B8033E
:1015E0000000F200BC030000E400BE030000E300C2
:1015F000C0030000F700C1030000E600C3030000C1
:10160000E500902100007F00922100007E001A2258
:101610000000E8001E220000F30088250000FF0003
:1016200002300000A1000C300000A2000D300000CC
:10163000A3009B300000DE009C300000DF00A030E3
:1016400000003D00A1300000A700A2300000B10062
:10165000A3300000A800A4300000B200A5300000B4
:10166000A900A6300000B300A7300000AA00A830EF
:101670000000B400A9300000AB00AA300000B500A3
:10168000AB300000B600AC300000B6DEAD3000007C
:10169000B700AE300000B7DEAF300000B800B030A9
:1016A0000000B8DEB1300000B900B2300000B9DE91
:1016B000B3300000BA00B4300000BADEB53000002C
:1016C000BB00B6300000BBDEB7300000BC00B83055
:1016D0000000BCDEB9300000BD00BA300000BDDE45
:1016E000BB300000BE00BC300000BEDEBD300000DC
:1016F000BF00BE300000BFDEBF300000C000C03001
:101700000000C0DEC1300000C100C2300000C1DEF8
:10171000C3300000AF00C4300000C200C53000007C
:10172000C2DEC6300000C300C7300000C3DEC830D0
:101730000000C400C9300000C4DECA300000C5008B
:10174000CB300000C600CC300000C700CD30000018
:10175000C800CE300000C900CF300000CA00D03031
:101760000000CADED1300000CADFD2300000CB005A
:10177000D3300000CBDED4300000CBDFD53000000A
:10178000CC00D6300000CCDED7300000CCDFD83023
:101790000000CD00D9300000CDDEDA300000CDDF12
:1017A000DB300000CE00DC300000CEDEDD3000009B
:1017B000CEDFDE300000CF00DF300000D000E030B0
:1017C0000000D100E1300000D200E2300000D30080
:1017D000E3300000AC00E4300000D400E53000004D
:1017E000AD00E6300000D500E7300000AE00E83084
:1017F0000000D600E9300000D700EA300000D80031
:10180000EB300000D900EC300000DA00ED300000D1
:10181000DB00EF300000DC00F2300000A600F33007
:101820000000DD00F4300000B3DEF7300000DCDE45
:10183000FA300000A6DEFB300000A500FC300000FE
:10184000B000FD300000A400074E0000FB008651F0
:101850000000FC0043530000FA0064FF0000A400F5
:1018600065FF0000A50066FF0000A60067FF0000FE
:10187000A70068FF0000A80069FF0000A9006AFF38
:101880000000AA006BFF0000AB006CFF0000AC0082
:101890006DFF0000AD006EFF0000AE006FFF0000A6
:1018A000AF0070FF0000B00071FF0000B10072FFD8
:1018B0000000B20073FF0000B30074FF0000B4002A
:1018C00075FF0000B50076FF0000B60077FF00004E
:1018D000B70078FF0000B80079FF0000B9007AFF78
:1018E0000000BA007BFF0000BB007CFF0000BC00D2
:1018F0007DFF0000BD007EFF0000BE007FFF0000F6
:10190000BF0080FF0000C00081FF0000C10082FF17
:101910000000C20083FF0000C30084FF0000C40079
:1019200085FF0000C50086FF0000C60087FF00009D
:10193000C70088FF0000C80089FF0000C9008AFFB7
:101940000000CA008BFF0000CB008CFF0000CC0021
:101950008DFF0000CD008EFF0000CE008FFF000045
:10196000CF0090FF0000D00091FF0000D10092FF57
:101970000000D20093FF0000D30094FF0000D400C9
:1019800095FF0000D50096FF0000D60097FF0000ED
:10199000D70098FF0000D80099FF0000D9009AFFF7
:1019A0000000DA009BFF0000DB009CFF0000DC0071
:1019B0009DFF0000DD009EFF0000DE009FFF000095
:1019C000DF00E5FF00005C000000000001020404ED
:1019D0000000001C1C0C04040402010000000000B4
:1019E0000408100000000000001C1F11111F00005F
:1019F0000006191803130C00040E1F041C0000003D
:101A0000000E1315110E00001C1018170506050016
:101A1000040A0A0A0A11110E0C12120C000000002E
:101A2000001F1511151F0000EB04E7040000000063
:101A30000000000000000000000048420000484292
:101A4000000080400202040000A0400000A040000E
:101A5000000040FFFFFF0000484300004843000033
:101A6000484300009643000096430000A040000059
:101A7000C8410000A0420000A04200007A450000DA
:101A8000FA43B80B0000B80B0000640000001027F8
:101A9000000024F4D43050C38E20C2A24017828BA1
:101AA0007011127A910D816CD90AA861E108C758AA
:101AB0006607615143061E4B5D05C145A7041A41E7
:101AC0001104093D9803713931034036DB02653357
:101AD0009102D4305402802E1D02632CEE01752A2F
:101AE000C501B028A001102781018F2564012B2496
:101AF0004B01E0223401AC211F018D200D01801F1C
:101B0000FC00841EED00971DDF00B81CD200E61B10
:101B1000C600201BBC00641AB200B219A8000A1942
:101B2000A0006A189900D117910040178B00B516D4
:101B3000840031167E00B31579003A157300C7147E
:101B40006F0058146A00EE136600881363002513B3
:101B50005E00C7125B006C12570015125400C111D1
:101B6000510070114F0021114B00D61049008D100B
:101B700047004610440002104200C00F4000800F92
:101B80003E00420F3C00060F3B00CB0E3800930E88
:101B900037005C0E3500270E3400F30D3200C10D06
:101BA0003100900D3000600D2E00320D2D00050D1E
:101BB0002C00D90C2B00AE0C2900850C29005C0CE4
:101BC0002700350C27000E0C2600E80B2400C40B60
:101BD0002400A00B23007D0B23005A0B2100390B9E
:101BE0002100180B2000F80A1F00D90A1E00BB0AAA
:101BF0001E009D0A1D00800A1D00630A1C00470A82
:101C00001B002C0A1B00110A1A00F7091A00DD0933
:101C10001900C4091900AB091900920917007B09C2
:101C20001800630917004C09160036091600200930
:101C300016000A091500F5081500E0081400CC0884
:101C40001400B8081400A4081400900813007D08BC
:101C500012006B08130058081200460812003408DE
:101C60001100230811001208110001081100F007EB
:101C70001000E0071000D0071000C0071000B007E8
:101C80000F00A107100091070E0083070F007407D3
:101C90000F0065070E0057070E0049070E003B07AF
:101CA0000D002E070E0020070D0013070D0006077C
:101CB0000D00F9060C00ED060D00E0060C00D40640
:101CC0000C00C8060C00BC060C00B0060C00A406F4
:101CD0000B0099060C008D060B0082060B007706A0
:101CE0000B006C060B0061060A0057060B004C0641
:101CF0000A0042060A0038060A002E060A002406D8
:101D00000A001A060A001006090007060A00FD0567
:101D10000900F4050900EB050900E2050900D905F1
:101D20000900D0050900C7050900BE050900B50571
:101D30000800AD050800A50509009C0508009405EC
:101D400008008C050800840508007C05080074055F
:101D500008006C050700650508005D0507005605CD
:101D600008004E0507004705070040050800380534
:101D70000700310507002A050700230507001C0599
:101D80000600160507000F050700080506000205F6
:101D90000700FB040600F5040700EE040600E80453
:101DA0000600E2040700DB040600D5040600CF04A9
:101DB0000600C9040600C3040600BD040600B704FB
:101DC0000600B1040500AC040600A6040600A00449
:101DD00005009B04060095040500900406008A0493
:101DE000050085040500800406007A0405007504DA
:101DF0000500700405006B0405006604050061041D
:101E000005005C04050057040500520405004D045C
:101E1000050048040500430405003E0404003A049C
:101E2000050035040500300404002C0405002704D7
:101E30000400230405001E0404001A040400160410
:101E40000500110404000D04040009040500040445
:101E5000040000040400FC030400F8030400F4037D
:101E60000400F0030400EC030400E8030400E403AE
:101E70000400E0030400DC030400D8030400D403DE
:101E80000400D0030400CC030400C8030300C5030E
:101E9000030024F404D9201BC40C5C0E9804C4096C
:101EA0005F0265077101F405F900FB04B300480403
:101EB0008700C10369005803550003034500BE02B3
:101EC0003A008402310053022A002902250004024C
:101ED0002000E4011C00C8011900AF01170098019F
:101EE0001400840113007101100061011000510100
:101EF0000E0043010D0036010B002B010B002001E9
:101F00000B00150109000C01090003010800FB008A
:101F10000800F3000800EB000700E4000600DE0004
:101F20000600D8000600D2000600CC000500C7005D
:101F30000500C2000500BD000400B9000400B500A2
:101F40000400B1000400AD000400A9000400A500D5
:101F50000300A20003009F0004009B000300980000
:101F600003009500020093000300900003008D0021
:101F700002008B000300880002008600020084003B
:101F80000300810002007F0002007D0002007B0050
:101F90000200790002007700010076000200740060
:101FA000020072000100710002006F0002006D006B
:101FB00001006C0002006A00010069000200670075
:101FC000010066000100650001006400020062007B
:101FD000010061000100600001005F0002005D007F
:101FE00001005C0001005B0001005A000100590083
:101FF0000100580001005700010056000100550083
:102000000100540001005300000053000100520081
:10201000010051000100500001004F0001004E007E
:1020200000004E0001004D0001004C0001004B007B
:1020300000004B0001004A00010049000100480077
:102040000000480001004700010046000000460073
:10205000010045000000450001004400010043006C
:102060000000430001004200000042000100410066
:10207000000041000100400001003F0000003F005F
:1020800001003E0000003E0001003D0000003D0058
:1020900001003C0000003C0000003C0001003B004F
:1020A00000003B0001003A0000003A000100390046
:1020B000000039000100380000003800000038003E
:1020C0000100370000003700010036000000360034
:1020D000000036000100350000003500000035002A
:1020E000010034000000340000003400010033001F
:1020F0000000330000003300010032000000320015
:102100000000320001003100000031000000310009
:1021100001003000000030000000300001002F00FE
:1021200000002F0000002F0000002F0001002E00F3
:1021300000002E0000002E0001002D0000002D00E8
:1021400000002D0000002D0001002C0000002C00DC
:1021500000002C0000002C0001002B0000002B00D0
:1021600000002B0000002B0001002A0000002A00C4
:1021700000002A0000002A000100290000002900B8
:1021800000002900000029000000290001002800AB
:10219000000028000000280000002800000028009F
:1021A0000100270000002700000027000000270092
:1021B0000000270001002600000026000000260085
:1021C0000000260000002600010025000000250078
:1021D000000025000000250000002500000025006B
:1021E000010024000000240000002400000024005E
:1021F0000000240001002300000023000000230051
:102200000000230000002300000023000000230042
:102210000100220000002200000022000000220035
:102220000000220000002200010021000000210027
:10223000000021000000210000002100000021001A
:10224000000021000100200000002000000020000C
:1022500000002000000020000000200000002000FE
:102260000000200001001F0000001F0000001F00F0
:1022700000001F0000001F0000001F0000001F00E2
:1022800001001E0000001E0000001E0000001E00D5
:102290000000043700001E290000511B00005810E8
:1022A000000010090000CC04000078020000410189
:1022B00000000009121B242D363F48415A536C651B
:1022C0007E7719100B023D342F265158434A757CF6
:1022D000676E323B2029161F040D7A7368615E57C2
:1022E0004C452B2239300F061D14636A7178474E16
:1022F000555C646D767F4049525B2C253E37080162
:102300001A137D746F6659504B42353C272E1118B5
:10231000030A565F444D727B60691E170C053A3301
:1023200028214F465D546B627970070E151C232AD5
:1023300031384148535A656C777E09001B122D24B1
:102340003F3658514A437C756E671019020B343D75
:10235000262F737A6168575E454C3B3229201F1641
:102360000D046A6378714E475C55222B3039060F95
:10237000141D252C373E0108131A6D647F764940E1
:102380005B523C352E2718110A03747D666F505935
:10239000424B171E050C333A21285F564D447B7281
:1023A00069600E071C152A233831464F545D626B55
:1023B00070795072696E742066726F6D204D65641D
:1023C0006961005072696E742050617573656400B4
:1023D00020746F6F206C6F6E6720657874727573F0
:1023E000696F6E2070726576656E7465640A002090
:1023F000636F6C6420657874727573696F6E20709A
:10240000726576656E7465640A007C3C3E5E2B3DA9
:102410003F2F5B5D3B2C2A225C0043616E6E6F7424
:10242000206F70656E20737562646972200053447A
:1024300020496E6974204661696C005344206361D1
:102440007264206F6B0A006F70656E526F6F74203C
:102450006661696C65640A00766F6C756D652E69DE
:102460006E6974206661696C65640A004E6F205362
:102470004420636172640A004D3234004D323320CF
:102480002573006F70656E206661696C65642C2031
:1024900046696C653A200046696C652073656C6519
:1024A000637465640A002053697A653A20004669BE
:1024B0006C65206F70656E65643A2000454E44205F
:1024C000535542524F5554494E450A002220706FD1
:1024D00073002220706172656E743A220053554277
:1024E000524F5554494E452043414C4C2074617223
:1024F0006765743A220053756263616C6C204F7695
:102500006572666C6F770045786365656465642005
:102510006D617820535542524F5554494E452064C1
:10252000657074683A310A0057726974696E672081
:10253000746F2066696C653A200066726573680086
:10254000646F696E67004E6F7720006874747073F3
:102550003A2F2F6D61726C696E66772E6F7267000D
:1025600020322E302E372E32002020506C616E6EBD
:10257000657242756666657242797465733A2000C9
:102580002046726565204D656D6F72793A20004373
:102590006F6D70696C65643A204465632031332047
:1025A000323032320A00204C6173742055706461FD
:1025B0007465643A20323032302D31302D3135207F
:1025C0007C20417574686F723A20286E6F6E652C9E
:1025D0002064656661756C7420636F6E6669672937
:1025E0000A00322E302E372E320A004D61726C698D
:1025F0006E0020536F667477617265205265736553
:10260000740A00205761746368646F6720526573B1
:1026100065740A002042726F776E206F75742052C5
:10262000657365740A002045787465726E616C206C
:1026300052657365740A00506F77657255700A00B1
:102640006175746F25632E67004732385859004D05
:1026500031303031006572726F722077726974693F
:102660006E6720746F2066696C650A00446F6E6542
:1026700020736176696E672066696C652E0A004D6D
:10268000323900456E6473746F70730025532025D2
:102690006320256320256320256300656E647374C1
:1026A0006F7073206869743A20004D6F766520253D
:1026B000736D6D004D6F766520302E316D6D004D60
:1026C0006F766520316D6D004D6F76652031306D10
:1026D0006D004D6F7665204178697300457874729E
:1026E00075646572004D6F7665205A004D6F766592
:1026F0002059004D6F7665205800220A00556E6BF8
:102700006E6F776E20636F6D6D616E643A2022008C
:102710003344205072696E74657220526561647929
:102720002E005072696E74696E672E2E2E00204541
:102730003A00205A3A0020593A00204D39322058A8
:10274000004531002C2073797374656D2073746FAC
:102750007070656421204865617465725F49443A10
:1027600020000270012C0190012701B0012201C05C
:10277000011D01F00118011002130130020E016069
:1027800002090190020401C002FF000003FA0040A8
:1027900003F5008003F000D003EB002004E6007096
:1027A00004E100E004DC004005D700C005D2004091
:1027B00006CD00D006C8008007C3003008BE00F078
:1027C00008B900C009B400B00AAF00B00BAA00D02D
:1027D0000CA500000EA000500F9B00C010960050EA
:1027E00012910000148C00C0158700B0178200B051
:1027F000197D00D01B7800001E730040206E0090F1
:10280000226900F024640040275F0090295A00E00C
:102810002B5500102E500020304B0010324600E0A7
:1028200033410090353C001037370070383200A03B
:10283000392D00B03A2800A03B2300603C1E001058
:102840003D1900903D1400103E0F00703E0A00C07C
:102850003E0500003F0000403FFBFF803FF6FFC009
:102860003FF1FFDB0FC93F45BCDA3F8FB30240FCAD
:10287000F0274056946140FE4B9B4084A5D840E031
:10288000231841346A5641E859974164DBD5416EBB
:10289000271742B4B75542CE1A9742C8AED542B5B3
:1028A000885A43D40684BFA65FA7BF7443E0BF1015
:1028B000B11AC01C2C58C0E8F697C0B849D6C04E13
:1028C0004E17C124D355C1802497C1A0B5D5C112DC
:1028D0001A17C244AE55C2781797C26CACD5C267FE
:1028E000885AC300002200250028002B002E00314A
:1028F00000340002010000050108010B0100002165
:1029000000240027002A002D0030003300010100C0
:1029100000040107010A0105050505070508080867
:1029200008020202020A0A08080404040401010160
:102930000101010101030303030303030304070768
:10294000070C0C0C0C0C0C0C0C0202020206060606
:1029500006060606060B0B0B0B0B0B0B0B010210EE
:1029600020200808102040102040800201020108A9
:102970000402010102040810204080804020100859
:1029800004020180040201804020100804020108B2
:102990000402010102040810204080010204081012
:1029A00020408000002110422063308440A550C6A2
:1029B00060E770088129914AA16BB18CC1ADD1CE7D
:1029C000E1EFF13112100273325222B5529442F704
:1029D00072D662399318837BB35AA3BDD39CC3FFCD
:1029E000F3DEE36224433420040114E664C774A4D4
:1029F0004485546AA54BB528850995EEE5CFF5AC1D
:102A0000C58DD55336722611163006D776F66695E3
:102A100056B4465BB77AA719973887DFF7FEE79D6C
:102A2000D7BCC7C448E5588668A778400861180233
:102A3000282338CCC9EDD98EE9AFF9488969990ABC
:102A4000A92BB9F55AD44AB77A966A711A500A3343
:102A50003A122AFDDBDCCBBFFB9EEB799B588B3B0C
:102A6000BB1AABA66C877CE44CC55C222C033C6093
:102A70000C411CAEED8FFDECCDCDDD2AAD0BBD685C
:102A80008D499D977EB66ED55EF44E133E322E5123
:102A90001E700E9FFFBEEFDDDFFCCF1BBF3AAF59AC
:102AA0009F788F8891A981CAB1EBA10CD12DC14E1D
:102AB000F16FE18010A100C230E3200450254046B0
:102AC000706760B9839893FBA3DAB33DC31CD37FCF
:102AD000E35EF3B1029012F322D232354214527700
:102AE000625672EAB5CBA5A89589856EF54FE52C9F
:102AF000D50DC5E234C324A0148104667447642450
:102B0000540544DBA7FAB79987B8975FE77EF71DAE
:102B1000C73CD7D326F2369106B01657667676159F
:102B20004634564CD96DC90EF92FE9C899E9898AFE
:102B3000B9ABA94458654806782768C018E10882EF
:102B400038A3287DCB5CDB3FEB1EFBF98BD89BBB0E
:102B5000AB9ABB754A545A376A167AF10AD01AB33F
:102B60002A923A2EFD0FED6CDD4DCDAABD8BADE85E
:102B70009DC98D267C076C645C454CA23C832CE08F
:102B80001CC10C1FEF3EFF5DCF7CDF9BAFBABFD9EE
:102B90008FF89F176E367E554E745E932EB23ED1DF
:102BA0000EF01E00000A0B02090C0D0E08070304AC
:102BB0000100000000000000000000000000000014
:102BC00000000000000000000000000000000012F3
:102BD00011100000000000000000000000000000D4
:102BE0000000000000000000000046BF1EC81124C5
:102BF0001FBECFEFD1E2DEBFCDBF00E00CBF12E0C1
:102C0000A0E0B2E0ECE8FEEA01E00BBF02C00790F2
:102C10000D92AA3BB107D9F722E1AAEBB2E001C0BD
:102C20001D92A33BB207E1F715E1C6EFD5E100E045
:102C300006C021970109802FFE010E9489D3C53F5C
:102C4000D10780E00807A9F70E9449C00C9434D747
:102C50000C940000AF92BF92CF92DF92EF92FF925E
:102C60000F931F93CF93DF93C8E8DDE007EC17E0E5
:102C700088E9A82E8DE0B82EC12CD12C7601C39402
:102C800069917991899199910E94C3CC2889398958
:102C90004A895B890E9424CD0E941FD5F801619367
:102CA0007193819391938F01C616D706E806F906B2
:102CB00010F46B017C01AC16BD0611F76FEF7FEFCE
:102CC000CB01A70196010E94ECD22093D707309345
:102CD000D8074093D9075093DA07DF91CF911F911E
:102CE0000F91FF90EF90DF90CF90BF90AF9008953D
:102CF000CF92DF92EF92FF928091AA04882309F489
:102D000057C0C090A604D090A704E090A804F0900B
:102D1000A90420E030E0A901C701B6010E94BECCA1
:102D2000882309F445C020E030E040E05FE3C701BC
:102D3000B6010E9424CD9B01AC010E9424CD2BED55
:102D40003FE049E450E40E9424CD9B01AC0160E0E7
:102D500070E080E89FE30E94A6D46B017C01C092E2
:102D60009A04D0929B04E0929C04F0929D0460919E
:102D7000120270911302072E000C880B990B0E940F
:102D8000C5CC2AE037ED43E25CE30E9424CDA701E5
:102D900096010E9424CD60934D0270934E02809361
:102DA0004F0290935002FF90EF90DF90CF900895E4
:102DB000C12CD12C80E8E82E8FE3F82ED0CFCF9312
:102DC000DF9324E0829FC0011124EC01C954D84F45
:102DD000FC01E654FA4F83589B4FDC012D913D9145
:102DE0004D915C9160817181828193810E94ACD30D
:102DF000688379838A839B83DF91CF910895CF92F3
:102E0000DF92EF92FF921F93CF93DF9320912002E6
:102E1000222309F48DC0EC011091890410FF2CC00D
:102E2000C0902202D0902302E0902402F09025026C
:102E3000288139814A815B81C701B6010E940CD685
:102E4000181624F4C882D982EA82FB82C0902E022E
:102E5000D0902F02E0903002F09031022881398129
:102E60004A815B81C701B6010E94BECC87FF04C0C6
:102E7000C882D982EA82FB8211FF2CC0C090260250
:102E8000D0902702E0902802F09029022C813D8109
:102E90004E815F81C701B6010E940CD6181624F43A
:102EA000CC82DD82EE82FF82C0903202D09033026B
:102EB000E0903402F09035022C813D814E815F819B
:102EC000C701B6010E94BECC87FF04C0CC82DD8260
:102ED000EE82FF8212FF2CC0C0902A02D0902B02FB
:102EE000E0902C02F0902D02288539854A855B857B
:102EF000C701B6010E940CD6181624F4C886D986DC
:102F0000EA86FB86C0903602D0903702E090380205
:102F1000F0903902288539854A855B85C701B6015D
:102F20000E94BECC87FF04C0C886D986EA86FB868D
:102F3000DF91CF911F91FF90EF90DF90CF90089598
:102F4000CF92DF92EF92FF92FC01C080D180E280AD
:102F5000F38020E030E0A901C701B6010E94BECC99
:102F600087FF68C0C701B601905820E030E040E21A
:102F700051E40E9424CD20E030E040EA50E40E9479
:102F8000ACD320E030E040E251E40E94A6D40E949D
:102F900018D59B0160E22031F7E23F0730F0C9010C
:102FA00060E177E20E9442D3605D60936A04283E4C
:102FB00083E0380708F445C0C90168EE73E00E9459
:102FC00042D3CB016AE070E00E9442D3805D8093DF
:102FD0006B0480E22436310558F0C90164E670E0E4
:102FE0000E9442D3CB016AE070E00E9442D3805D30
:102FF00080936C0480E22A30310558F0EAE0F0E07A
:10300000C901BF010E9442D3CB01BF010E9442D33C
:10301000805D80936D04C9016AE070E00E9442D334
:10302000805D80936E048AE694E0FF90EF90DF90DD
:10303000CF90089520E030E040E251E4C701B601AE
:1030400098CF80E2C4CF8F929F92AF92BF92CF92DF
:10305000DF92EF92FF92FC01C080D180E280F3808A
:1030600020E030E040E251E4C701B6010E9424CDE7
:1030700020E030E040E251E40E9424CD4B015C01AD
:1030800020E030E0A901C701B6010E94BECC20E0DB
:1030900030E040EA50E487FF04C020E030E040EA3E
:1030A00050ECC501B4010E94ACD320E030E040E216
:1030B00051E40E94A6D40E9418D59B018BE237FFF1
:1030C00005C022273327261B370B8DE28093690426
:1030D000C90168EE73E00E9456D3CB01EAE0F0E04C
:1030E000BF010E9456D3805D80936A04C90164E6E3
:1030F00070E00E9456D3CB01BF010E9456D3805D81
:1031000080936B04C901BF010E9456D3282FCB01C5
:10311000BF010E9456D3805D80936C048EE2809341
:103120006D04205D20936E0489E694E0FF90EF909B
:10313000DF90CF90BF90AF909F908F9008958F9227
:103140009F92AF92BF92CF92DF92EF92FF92CF9376
:10315000FC01C080D180E280F38020E030E040E2DA
:1031600051E4C701B6010E9424CD20E030E048ECD4
:1031700052E40E9424CD4B015C0120E030E040E2AB
:1031800051ECC701B6010E94BECC181654F420E0E1
:1031900030E048EC52E4C701B6010E940CD687FD2E
:1031A00086C020E030E0A901C701B6010E94BECC74
:1031B00087FF6EC060E070E080EA90ECA5019401AA
:1031C0000E94ACD320E030E040E251E40E94A6D45B
:1031D0000E9418D56B017C01F7FC5FC020E137E24B
:1031E00040E050E00E946AD3CA01B9012AE030E011
:1031F00040E050E00E946AD3605D60936904C701BB
:10320000B60128EE33E040E050E00E946AD39AE035
:10321000892E912CA12CB12CCA01B901A5019401D0
:103220000E946AD3605D60936A04C701B60124E618
:1032300030E040E050E00E946AD3CA01B901A50124
:1032400094010E946AD3605D60936B048EE2809368
:103250006C04C701B601A50194010E946AD3C62F70
:10326000CA01B901A50194010E946AD3605D60930F
:103270006D04C05DC0936E0489E694E0CF91FF9029
:10328000EF90DF90CF90BF90AF909F908F90089578
:1032900060E070E080EA90E491CFF094E094D09404
:1032A000C094C11CD11CE11CF11C6DE2A6CF20E032
:1032B00030E0A901C701B6010E94BECC87FF6AC0F9
:1032C00060E070E080EA90ECA50194010E94ACD32C
:1032D00020E030E040E251E40E94A6D40E9418D5DC
:1032E0004B015C0120E030E0A901C701B6010E945A
:1032F0000CD687FD0BC020E030E040E251E4C7016E
:10330000B6010E94BECC60E287FD13C0B7FC47C087
:10331000C501B40128EE33E040E050E00E946AD3DA
:10332000CA01B9012AE030E040E050E00E946AD3CF
:10333000605D60936A04C501B40124E630E040E0BA
:1033400050E00E946AD38AE0C82ED12CE12CF12CE7
:10335000CA01B901A70196010E946AD3605D60931A
:103360006B048EE280936C04C501B401A701960141
:103370000E946AD3C62FCA01B901A70196010E9413
:103380006AD3605D60936D04C05DC0936E048AE68D
:1033900094E074CF60E070E080EA90E495CFB09460
:1033A000A09490948094811C911CA11CB11C6DE28E
:1033B000C0CF9C0197FF26C0EE27FF27E81BF90B23
:1033C0002D398FEF38070CF05DC08DE280936B04D0
:1033D000CF0164E670E00E9456D3CB012AE030E0D2
:1033E000B9010E9456D3805D80936C04CF01B9016E
:1033F0000E9456D3CB01B9010E9456D3805D8093C1
:103400006D042AC0283E83E03807B4F1C90168EE94
:1034100073E00E9456D3CB01EAE0F0E0BF010E94C6
:1034200056D3805D80936B04C90164E670E00E940E
:1034300056D3CB01BF010E9456D3805D80936C04AC
:10344000C901BF010E9456D3CB01BF010E9456D3D0
:10345000805D80936D04F901CF016AE070E00E9405
:1034600056D3805D80936E048BE694E008958DE2E0
:1034700037FDC5CF80E2C3CFF90180E224363105A4
:103480000CF0A4CF80E280936B0480936C04EA304C
:10349000F1056CF38DE237FF80E280936C04CF017D
:1034A0006AE070E00E9456D3605D60936D04D4CFF3
:1034B0009C0197FD2DC080E2243631055CF0C901E6
:1034C00064E670E00E9456D3CB016AE070E00E948F
:1034D00056D3805D80936C0480E22A3031055CF025
:1034E000EAE0F0E0C901BF010E9456D3CB01BF0161
:1034F0000E9456D3805D80936D04C9016AE070E03C
:103500000E9456D3805D80936E048CE694E008950B
:103510003195219531098DE2DDCF9C0180E2243681
:10352000310558F0C90164E670E00E9442D3CB0136
:103530006AE070E00E9442D3805D80936C0480E278
:103540002A30310558F0EAE0F0E0C901BF010E94DD
:1035500042D3CB01BF010E9442D3805D80936D04B2
:10356000C9016AE070E00E9442D3805D80936E04DE
:103570008CE694E00895282F80E2243628F0822FEC
:1035800064E60E9428D3805D80936C0490E22A3028
:1035900040F03AE0822F632F0E9428D30E9428D364
:1035A000905D90936D04822F6AE00E9428D3905D15
:1035B00090936E048CE694E0089524E6829FC00107
:1035C000112481589F4F6FEF70E00E9456D3262F31
:1035D00081E3643609F080E280936B0490E22A3044
:1035E00040F03AE0822F632F0E9428D30E9428D314
:1035F000905D90936C04822F6AE00E9428D3905DC6
:1036000090936D0485E280936E048BE694E00895B8
:10361000FC01808108956091120270911302072EBF
:10362000000C880B990B0E94C5CC2AE037ED43E2D1
:103630005CE30E9424CD20919A0430919B04409138
:103640009C0450919D040E9424CD60934D02709380
:103650004E0280934F02909350020895CF93DF93D0
:10366000EC01CB01BA010E94C5CC20E030E0A901F9
:103670000E94ACD30E9418D579836883DF91CF91E3
:1036800008950E94C5CC20E030E0A9010E94ACD38F
:103690000E9418D5CB010C94581A8091750781119E
:1036A00004C0809152078093DF070895CF93DF9382
:1036B000EC01CB01BA010E94C5CC20E030E0A901A9
:1036C0000E94ACD30E941FD56883DF91CF910895EB
:1036D0000E94C5CC20E030E0A9010E94ACD30E943A
:1036E0001FD5862F0C94BB1A80917907909178078B
:1036F00091118093E00780937A0708950C948B557D
:103700008091CD0F8823C1F081508093CD0FE4E5E7
:10371000FEE0882351F08150990B2BE1289FF001A6
:10372000299FF00D1124E154F14F8BE1A9E3BEE094
:1037300001900D928A95E1F72091CD0F211105C0DE
:103740008091D70F80628093D70F81E090E0A0E056
:10375000B0E0211103C080E090E0DC0180936407B9
:1037600090936507A0936607B093670710925D0773
:1037700081E08093740783E080934C020895CF9397
:10378000DF93EC01CB01BA010E94C5CC20E030E010
:10379000A9010E94ACD30E941FD579836883DF9171
:1037A000CF9108950E94C5CC20E030E0A9010E948D
:1037B000ACD30E941FD5CB010C948D1ACF93DF930D
:1037C000EC01CB01BA010E94C5CC29EC38EC48ECE5
:1037D0005EE30E94A6D420E030E040E05FE30E9478
:1037E000ACD30E941FD56883DF91CF9108950E94CA
:1037F000C5CC29EC38EC48EC5EE30E94A6D420E06E
:1038000030E040E05FE30E94ACD30E941FD5862FDA
:103810000C94DD1AE091750784E0E802F0011124B0
:10382000E256FB4F8091520790E093838283089584
:10383000CF93DF93EC01CB01BA010E94C5CC20E00D
:1038400030E040E251E40E94A6D420E030E0A9013B
:103850000E94ACD3688379838A839B83DF91CF9165
:103860000895CF93DF93EC01CB01BA010E94C5CC40
:103870002AE037ED43E25DE30E94A6D420E030E089
:10388000A9010E94ACD30E941FD5688379838A83E3
:103890009B83DF91CF910895CF93DF93EC01CB0110
:1038A000BA010E94C5CC20E030E0A9010E94ACD34F
:1038B000688379838A839B83DF91CF910895CF9327
:1038C000DF93EC01CB01BA010E94C5CC20E030E0CF
:1038D000A9010E94ACD3688379838A839B83DF919B
:1038E000CF910895CF93DF93EC01CB01BA010E94F1
:1038F000C5CC2AE037ED43E25DE30E94A6D420E088
:1039000030E0A9010E94ACD3688379838A839B83CA
:10391000DF91CF910895CF93DF93EC01CB01BA01F2
:103920000E94C5CC20E030E048EC52E40E94A6D4CE
:1039300020E030E0A9010E94ACD3688379838A83B8
:103940009B83DF91CF910895CF92DF92EF92FF9208
:10395000CF93DF9300D01F92CDB7DEB70E94C5CCC6
:1039600020E030E048EC52E40E94A6D420E030E0B1
:10397000A9010E94ACD36B017C0120E030E0A901D9
:103980000E94BECC2DEB37E346E055E387FF04C031
:103990002DEB37E346E055EBC701B6010E94ACD3EF
:1039A00069837A838B839C83CE0101960E949F1842
:1039B0000F900F900F900F90DF91CF91FF90EF90AD
:1039C000DF90CF900895CF93DF93EC01CB01BA0144
:1039D0000E94C5CC20E030E04AE754E40E94A6D41F
:1039E00020E030E0A9010E94ACD3688379838A8308
:1039F0009B83DF91CF9108950C942A160C942A167C
:103A00000C942A160C942A16CF93DF9300D01F92A1
:103A1000CDB7DEB70E941FD50E94C3CC69837A83DD
:103A20008B839C83CE0101960E94A0170F900F906C
:103A30000F900F90DF91CF9108950E94C5CC2AE09E
:103A400037ED43E25DE30E94A6D420E030E0A90117
:103A50000E94ACD30C94041D8F929F92AF92BF92A0
:103A6000CF92DF92EF92FF92CF936B017C0120E027
:103A700030E0A9010E94BECC87FDAAC06DEB77E3C0
:103A800086E095E3A70196010E94ACD36B017C010F
:103A900020E030E0A9010E94BECC87FF9EC0C70194
:103AA000B601905820E030E040E251E40E9424CD7D
:103AB00020E030E040E251E40E9424CD20E030E0FC
:103AC00040EA50E40E94ACD320E030E040E251E410
:103AD0000E94A6D40E9418D56B017C0180E28093DD
:103AE000680460E280E1C81687E2D806E104F104C8
:103AF0008CF0C701B60120E137E240E050E00E94BF
:103B00006AD3CA01B9012AE030E040E050E00E94E7
:103B10006AD3605D6093690460E288EEC81683E052
:103B2000D806E104F1048CF0C701B60128EE33E0B9
:103B300040E050E00E946AD3CA01B9012AE030E0B7
:103B400040E050E00E946AD3605D60936A0460E2E6
:103B500084E6C816D104E104F1048CF0C701B60173
:103B600024E630E040E050E00E946AD3CA01B90187
:103B70002AE030E040E050E00E946AD3605D60934C
:103B80006B048AE0882E912CA12CB12CC701B601C0
:103B9000A50194010E946AD3C62FCA01B901A501EB
:103BA00094010E946AD3605D60936C048EE28093FE
:103BB0006D04C05DC0936E0488E694E0CF91FF90E1
:103BC000EF90DF90CF90BF90AF909F908F9008952F
:103BD0006DEB77E386E095EB55CF20E030E040E2F7
:103BE00051E4C701B60162CF0E94C5CC20E030E0AD
:103BF00040E251E40E94A6D420E030E0A9010E94F6
:103C0000ACD30C942C1DCF92DF92EF92FF92CF9306
:103C1000DF9300D01F92CDB7DEB76B017C0120E0AF
:103C200030E0A9010E94BECC87FD1BC06DEB77E39D
:103C300086E095E3A70196010E94ACD369837A835D
:103C40008B839C83CE0101960E94A0170F900F904A
:103C50000F900F90DF91CF91FF90EF90DF90CF907A
:103C600008956DEB77E386E095EBE4CF0E94C5CC39
:103C700020E030E0A9010E94ACD30C94031E0E9406
:103C8000C5CC2AE037ED43E25DE30E94A6D420E0F4
:103C900030E0A9010E94ACD30C94031E8F929F9236
:103CA000AF92BF92CF92DF92EF92FF92CF936B01D0
:103CB0007C0120E030E0A9010E94BECC87FD93C0CA
:103CC0006DEB77E386E095E3A70196010E94ACD304
:103CD0006B017C0120E030E040E251E40E9424CD01
:103CE00020E030E04AE754E40E9424CD4B015C011F
:103CF00020E030E0A901C701B6010E94BECC20E05F
:103D000030E040EA50E487FF04C020E030E040EAC1
:103D100050ECC501B4010E94ACD320E030E040E299
:103D200051E40E94A6D40E9418D56B017C01C114F5
:103D3000D104E104F10409F45BC0F7FE59C0F0942A
:103D4000E094D094C094C11CD11CE11CF11C8DE204
:103D500080936904C701B60128EE33E040E050E0EB
:103D60000E946AD38AE0882E912CA12CB12CCA0122
:103D7000B901A50194010E946AD3605D60936A0451
:103D80008EE280936B04C701B60124E630E040E088
:103D900050E00E946AD3CA01B901A50194010E94B2
:103DA0006AD3605D60936C04C701B601A5019401FC
:103DB0000E946AD3C62FCA01B901A50194010E94CD
:103DC0006AD3605D60936D04C05DC0936E0489E644
:103DD00094E0CF91FF90EF90DF90CF90BF90AF90A5
:103DE0009F908F9008956DEB77E386E095EB6CCF15
:103DF00080E2AECF0E94C5CC20E030E04AE754E438
:103E00000E94A6D420E030E0A9010E94ACD30C941B
:103E10004E1ECF92DF92EF92FF926B017C0120E069
:103E200030E0A9010E94BECC87FD26C06DEB77E390
:103E300086E095E3A70196010E94ACD36B017C015B
:103E400020E030E0A9010E94BECC20E030E040E05C
:103E50005FE387FF04C020E030E040E05FEBC70194
:103E6000B6010E94ACD30E9418D5CB01FF90EF9011
:103E7000DF90CF900C94581A6DEB77E386E095EBCA
:103E8000D9CF0E94C5CC20E030E0A9010E94ACD37C
:103E90000C94091F80917B0E90917C0E891B8F7072
:103EA00051F48091A607813031F08091D70F82FBC9
:103EB000882780F9089581E00895FC018491089590
:103EC000AF92BF92CF92DF92EF92FF920F931F9328
:103ED000CF93DF93EC015B018A01FB01199587FD0C
:103EE00016C0C82ED12CF12CE12C2196F801C082ED
:103EF000D182E282F382CE01DF91CF911F910F91A7
:103F0000FF90EF90DF90CF90BF90AF900895982FE3
:103F1000907E903CA9F48F7190E0B0E0A0E06C013D
:103F20007D0126E0CC0CDD1CEE1CFF1C2A95D1F790
:103F3000CE010196F50119958F73C82A2296D6CF26
:103F4000982F907F903E11F58F7090E0B0E0A0E048
:103F50006C017D0186E0CC0CDD1CEE1CFF1C8A95FB
:103F6000D1F7CE010196F50119958F73C82A96E015
:103F7000CC0CDD1CEE1CFF1C9A95D1F7CE010296ED
:103F8000F50119958F73C82A2396B0CF982F987F83
:103F9000903F79F5877090E0B0E0A0E06C017D0182
:103FA000F6E0CC0CDD1CEE1CFF1CFA95D1F7CE011F
:103FB0000196F50119958F73C82AA6E0CC0CDD1C7B
:103FC000EE1CFF1CAA95D1F7CE010296F5011995BA
:103FD0008F73C82AB6E0CC0CDD1CEE1CFF1CBA9512
:103FE000D1F7CE010396F50119958F73C82A24964F
:103FF0007DCF982F9C7F983FE1F5837090E0B0E0F3
:10400000A0E06C017D0156E0CC0CDD1CEE1CFF1C19
:104010005A95D1F7CE010196F50119958F73C82AEB
:1040200066E0CC0CDD1CEE1CFF1C6A95D1F7CE01BE
:104030000296F50119958F73C82A76E0CC0CDD1C29
:10404000EE1CFF1C7A95D1F7CE010396F501199568
:104050008F73C82AE6E0CC0CDD1CEE1CFF1CEA9531
:10406000D1F7CE010496F50119958F73C82A2596CC
:104070003DCF982F9E7F9C3F09F049C0817090E012
:10408000B0E0A0E06C017D0186E0CC0CDD1CEE1CF4
:10409000FF1C8A95D1F7CE010196F50119958F7312
:1040A000C82A96E0CC0CDD1CEE1CFF1C9A95D1F7BB
:1040B000CE010296F50119958F73C82A26E0CC0C23
:1040C000DD1CEE1CFF1C2A95D1F7CE010396F501ED
:1040D00019958F73C82A36E0CC0CDD1CEE1CFF1C32
:1040E0003A95D1F7CE010496F50119958F73C82A38
:1040F00046E0CC0CDD1CEE1CFF1C4A95D1F7CE012E
:104100000596F50119958F73C82A2696EFCE982F3C
:10411000907C903841F4807C803869F42196CE01FF
:10412000F5011995F8CF8E7F8D3F28F02196CE01AD
:10413000F5011995F8CFC12CD12C7601D7CECF93AC
:10414000DF93DB01F9019C919130C1F0943080F054
:1041500094509C938830D1F480819181009771F0C4
:10416000019791838083480F591FEA01188206C086
:104170008C3539F49C5F9C93943041F4DF91CF915E
:1041800008958B3339F781E08C93F8CF208131810A
:10419000B9016F5F7F4F71836083420F531FEA0144
:1041A0008883808191818F3591056CF7E7CF90915D
:1041B000C605E92FF0E0E654F14F80839F5F94300D
:1041C00040F49093C60580914A078F5F80934A0719
:1041D00008951092C605F7CF282F90915003833091
:1041E00021F495FD0FC094FD0FC0892F90E0B0E041
:1041F000A0E004C0B695A795979587952A95D2F724
:104200008170089581E0089580E00895129A0895DC
:104210005F9A8091B9058E7F8093B9058A9A8091C3
:10422000B9058D7F8093B9058091080180958170D3
:10423000809306018091B9058B7F8093B9050C941A
:1042400006210F931F938091A607813019F50E94D4
:1042500035AA009174041091750420917604309170
:104260007704601B710B820B930B28EE33E040E068
:1042700050E00E94ECD260917004709171048091C2
:10428000720490917304620F731F841F951F1F9116
:104290000F910895609178047091790480917A0467
:1042A00090917B04D6CF0F931F930E9435AA009163
:1042B0004004109141042091420430914304601B5A
:1042C000710B820B930B97FD0CC086B186FB882780
:1042D00080F991E08927349B8260329B84608093CF
:1042E0003F0480913F04817090913F0491FD826072
:1042F00090913E04981749F0813009F148F08230DE
:1043000079F0833091F080933E041F910F910895CE
:10431000913079F09230B9F790913D0491500CC0F2
:10432000992339F09330C1F3EECF9130A9F3923055
:1043300051F790913D049F5F90933D04E4CF992302
:1043400059F3933001F7F5CFCF92DF92EF92FF92BE
:10435000CF93C82F0E9435AA6B017C0124EA30E775
:104360004DE75FE360910C0270910D0280910E02A7
:1043700090910F020E94BECC87FD18C08AEF90E09A
:10438000A0E0B0E08C0D9D1DAE1DBF1D80932D04DF
:1043900090932E04A0932F04B0933004C093100286
:1043A000CF91FF90EF90DF90CF90089580E090E064
:1043B000DC01E8CF2091490230914A022F503109A7
:1043C000821793070CF49C013093100E20930F0E6C
:1043D0000C9463AA0C9463AA0C9463AACF93DF9302
:1043E000C7E0DEE08A819B810E9417916C837D8308
:1043F0008E839F83A89510923505DF91CF91089504
:104400002F923F924F925F926F927F928F929F92E4
:10441000AF92BF92CF92DF92EF92FF920F931F93D2
:10442000CF93DF93CDB7DEB72F970FB6F894DEBFEB
:104430000FBECDBF80913505811119C02F960FB6E3
:10444000F894DEBF0FBECDBFDF91CF911F910F91CA
:10445000FF90EF90DF90CF90BF90AF909F908F90A4
:104460007F906F905F904F903F902F9008950E94A3
:10447000EE210E9435AA2B013C0160914902709106
:104480004A02072E000C880B990B0E94C5CC9B0199
:10449000AC0160910B0E70910C0E80910D0E9091FD
:1044A0000E0E0E940CD618160CF4EBC160910F0E84
:1044B0007091100E072E000C880B990B0E94C5CC32
:1044C0006B017C012091740E3091750E4091760E37
:1044D0005091770E0E94BECC81117DC02091730E49
:1044E00029835981523009F494C1533009F4C2C16F
:1044F000513009F4CDC1C0900B0ED0900C0EE0905D
:104500000D0EF0900E0E6091470270914802072E3A
:10451000000C880B990B0E94C5CCA70196010E9444
:10452000BECC87FF11C06091490270914A02072EEC
:10453000000C880B990B0E94C5CCA70196010E9424
:104540000CD618160CF45FC060E06093110E8091D9
:10455000030E9091040EA091050EB091060E0097E7
:10456000A105B10509F46ACFA3019201281B390BFB
:104570004A0B5B0BDA01C901B7FD60CF6091010EF8
:104580007091020E90E080E00E94C3CCA7019601DA
:104590000E940CD618160CF0A6C163EB72E182ECF7
:1045A00092E12F960FB6F894DEBF0FBECDBFDF911C
:1045B000CF911F910F91FF90EF90DF90CF90BF9020
:1045C000AF909F908F907F906F905F904F903F90B3
:1045D0002F900C94EDA9C092740ED092750EE092BB
:1045E000760EF092770E31E0398320E030E0A901B9
:1045F000C701B6010E940CD618160CF01982498129
:104600004093730E6ECF60910F0E7091100E611576
:10461000710509F497C1072E000C880B990B0E94B5
:10462000C5CCA70196010E94ABD34B015C0120E0F1
:1046300030E040E251EC0E94BECC87FD83C120E017
:1046400030E040E251E4C501B4010E940CD61816D6
:104650000CF48CC18091330581118DC180912B05A3
:1046600090912C05A0912D05B0912E0589839A83F8
:10467000AB83BC8320912F053091300540913105EB
:10468000509132052D833E834F835887A7019601B1
:1046900060911F0570912005809121059091220560
:1046A0000E94ABD320911A0E30911B0E40911C0E2C
:1046B00050911D0E0E9424CD29813A814B815C814D
:1046C0000E94ABD320ED3CEC4CE45DE30E9424CD92
:1046D00029813A814B815C810E94ACD369837A83C2
:1046E0008B839C8360932B0570932C0580932D0501
:1046F00090932E058091160E9091170EA091180E92
:10470000B091190E89879A87AB87BC872D813E812E
:104710004F815885C501B4010E94ACD38B018F87AE
:104720009E8720E030E0A9010E94BECC87FD2EC10B
:1047300029853A854B855C8560E070E08FE793E4DE
:104740000E94A6D46D837D871C0198014F855E85EC
:104750000E94BECC87FF04C00D811D852F863E863A
:10476000C801AF85BE8580932F0590933005A09337
:104770003105B09332052091120E3091130E409105
:10478000140E5091150EC501B4010E9424CD4B01A9
:104790005C018092230590922405A0922505B09299
:1047A000260598014F855E8569857A858B859C8570
:1047B0000E9424CD9B01AC0120932705309328054E
:1047C0004093290550932A05C501B4010E94ACD33A
:1047D00029813A814B815C810E94ACD320E030E09A
:1047E000A9010E94ACD34B015C0120E030E0A9019B
:1047F0000E94BECC87FDA9C020E030E04FE753E423
:10480000C501B4010E940CD618160CF0A8C06FE7C1
:104810009DC0C0900B0ED0900C0EE0900D0EF0904D
:104820000E0E8090740E9090750EA090760EB09043
:10483000770E20E030E040E850E4C501B4010E946A
:10484000ABD3A70196010E94BECC1816ECF50E94CE
:1048500035AAC0906F0ED090700EE090710EF0905F
:10486000720E6C197D098E099F0997FD44CE83E075
:104870008093730E63E972E183EA92E10E94EDA9ED
:104880003ACE61ED72E18EED92E10E94EDA90ECE7D
:10489000C0900B0ED0900C0EE0900D0EF0900E0E0E
:1048A0008090740E9090750EA090760EB090770E5A
:1048B000A5019401C701B6010E94BECC87FD23CE9D
:1048C00082E08093730EB5CF0E9435AA605C734678
:1048D0008F4F9F4F60936F0E7093700E8093710E89
:1048E0009093720E08CEA0900F0EB090100EA114EF
:1048F000B104F9F0C701B6010E9418D56E5F7F4F71
:1049000034E0A31AB1086A157B059CF47093020E7B
:104910006093010E0E9435AA605E714B8F4F9F4FCE
:104920006093030E7093040E8093050E9093060E11
:1049300085CD1092030E1092040E1092050E109267
:10494000060E7CCD81E08093330560E0C0921F05A8
:10495000D0922005E0922105F0922205F6CDC50106
:10496000B4010E9418D575956795F0CF81E08093CA
:1049700033056FE7EBCF109233051D821E821F8235
:10498000188619821A821B821C8280CE00E010E0F9
:104990001F861E86E5CE0F931F938C0123EB37E015
:1049A0004FEA57E06BEA77E087EA97E00E94C4A1FC
:1049B0001F910F9108952F923F924F925F926F92A5
:1049C0007F928F929F92AF92BF92CF92DF92EF929F
:1049D000FF920F931F93CF93DF9300D000D0CDB7FA
:1049E000DEB70E9435AA0091B2051091B30520915F
:1049F000B4053091B505011511052105310509F002
:104A00000AC320918F0E222309F44AC0E0918D0E33
:104A1000215020938F0E21E02E0F20938D0E309188
:104A2000900E231302C010928D0E24E0E29FF0013D
:104A30001124EF56F14F00811181228133810093BF
:104A4000AE051093AF052093B0053093B105600F0C
:104A5000711F811D911D6093B2057093B305809302
:104A6000B4059093B5058091B0059091B105892B5F
:104A7000B9F08FB78E83F8942090AE053090AF05D3
:104A80002101712C612C0091B0051091B10580912C
:104A900042028532F1F08F3F09F495C09E819FBF9D
:104AA00026960FB6F894DEBF0FBECDBFDF91CF9133
:104AB0001F910F91FF90EF90DF90CF90BF90AF903C
:104AC0009F908F907F906F905F904F903F902F902E
:104AD0000895E2E6F7E294919D8397FDDFCF85E2AA
:104AE0000E9489908D81882321F09D81923009F068
:104AF000BCC14801B12CA12C60E072E18AE790E0D2
:104B0000A50198010E946AD329833A834B835C8371
:104B100069017A0121E0C21AD108E108F1088FEF9A
:104B2000C816D104E104F10409F00CF46EC160E48C
:104B300072E48FE090E0A50198010E946AD36901B8
:104B40007A0191E0C91AD108E108F1082D812230DB
:104B500009F00FC18FEFC816D104E104F10409F088
:104B60000CF4BFC260E970ED83E090E0A50198010C
:104B70000E946AD369017A0191E0C91AD108E1085B
:104B8000F10883E02FEFC216D104E104F10409F02B
:104B90000CF4A0C268E478EE81E090E0A5019801F1
:104BA0000E946AD369017A0181E0C81AD108E1083C
:104BB000F1089FEFC916D104E104F10411F00CF0E3
:104BC000FCC084E087C285E280934202E2E6F7E21D
:104BD00024912D83822F2F3F09F460CF223009F4D6
:104BE00068C058F4222379F1213009F444C087FDCC
:104BF00055CF85E20E94899078CF9D81943009F449
:104C00009AC008F478C0953091F710922001109264
:104C100021018091210188608093210180912101EF
:104C2000816080932101ECE3F9E2E491F0E0EE0F82
:104C3000FF1FED51F74D85919491E2E8F9E2E4917F
:104C4000E0934F044CCF14BC15BC84B5826084BD86
:104C500085B5816085BDECE3F9E2E491F0E0EE0F0B
:104C6000FF1FED51F74D85919491E2E8F9E2E4914F
:104C7000E093530434CF1092800010928100809111
:104C800081008860809381008091810081608093A1
:104C90008100ECE3F9E2E491F0E0EE0FFF1FED514B
:104CA000F74D85919491E2E8F9E2E491E0935204A2
:104CB00016CF1092B0001092B1008091B0008260C7
:104CC0008093B0008091B10081608093B100ECE3EB
:104CD000F9E2E491F0E0EE0FFF1FED51F74D859101
:104CE00094919093A7058093A605E2E8F9E2E491F8
:104CF000E093A805F4CE109290001092910080915C
:104D000091008860809391008091910081608093F0
:104D10009100ECE3F9E2E491F0E0EE0FFF1FED51BA
:104D2000F74D85919491E2E8F9E2E491E093510422
:104D300023E02D83D4CE1092A0001092A100809188
:104D4000A10088608093A1008091A1008160809380
:104D5000A100ECE3F9E2E491F0E0EE0FFF1FED516A
:104D6000F74D85919491E2E8F9E2E491E0935004E3
:104D7000B6CE8FEFC816D104E104F10409F00CF4AB
:104D800072C068E478EE81E090E0A50198010E948D
:104D90006AD369017A0191E0C91AD108E108F108E2
:104DA0002D81222309F462C12FEFC216D104E10440
:104DB000F10411F00CF063C104CF64E274EF80E001
:104DC00090E0A50194010E946AD369017A0181E013
:104DD000C81AD108E108F10885E09FEFC916D1048F
:104DE000E104F10409F008F475C162E17AE780E0BA
:104DF00090E0A50194010E946AD369017A0181E0E3
:104E0000C81AD108E108F1084CC181E02D812111B7
:104E100061C195B5987F892B85BD2FEF3FEFA90123
:104E200045284628472809F048C09D81923009F45A
:104E3000E2C00CF0C9C0992309F4CEC0913009F04A
:104E40002DCED0928900C0928800209360043093C8
:104E50006104409362045093630480916F00826008
:104E600080936F001BCE82E0D1CFB12CA12C60E0EB
:104E700072E18AE790E0A50198010E946AD3690176
:104E80007A0181E0C81AD108E108F108C114D104FF
:104E900091E0E906F104F4F491E02D81213059F517
:104EA00080918100887F892B809381002FEF3FEFD5
:104EB000A90145284628472821F29801220F331FCF
:104EC000D1010E9419D328EE33E040E050E00E9467
:104ED000ECD2ABCF68E478EE81E090E0A5019801D8
:104EE0000E946AD369017A0181E0C81AD108E108F9
:104EF000F10893E0D2CF8D818330F9F48091910055
:104F0000887F892B809391002FEF3FEFA9014528DF
:104F10004628472891F6D0929900C0929800209395
:104F20005C0430935D0440935E0450935F04809171
:104F30007100826080937100B1CD2D81243001F524
:104F40008091A100887F892B8093A1002FEF3FEFF4
:104F5000A90145284628472809F0AFCFD092A900DB
:104F6000C092A800209358043093590440935A04E7
:104F700050935B04809172008260809372008ECDAA
:104F80008D81853009F049CF80912101887F892B5F
:104F9000809321012FEF3FEFA9014528462847289C
:104FA00009F08BCFD0922901C0922801209354049C
:104FB00030935504409356045093570480917300E6
:104FC0008260809373006ACD8D81843039F20CF455
:104FD000A2CF853039F362CDC7BC209364043093EF
:104FE0006504409366045093670480916E0082606C
:104FF00080936E0053CDC092B3002093A9053093E7
:10500000AA054093AB055093AC0580917000826077
:105010008093700043CD601B710B820B930B97FD47
:105020003FCD40981092B2051092B3051092B4058E
:105030001092B50535CDC980DA80EB80FC809AE00E
:10504000F594E794D794C7949A95D1F721E0C21AC2
:10505000D108E108F10885E0DCCE8FEFC816D10455
:10506000E104F10409F038F784E0D3CE83E09FEF48
:10507000C916D104E104F10409F00CF4CACE62E1CE
:105080007AE780E090E0A50194010E946AD369016B
:105090007A0181E0C81AD108E108F1089D819923BD
:1050A000E1F286E02FEFC216D104E104F10491F0A1
:1050B00088F0C980DA80EB80FC808AE0F594E79480
:1050C000D794C7948A95D1F791E0C91AD108E1081D
:1050D000F10887E09091B100987F892B8093B1000F
:1050E0009CCE82E0F7CF0F931F93CF93DF938C0179
:1050F000EB0190918F0E2091900E921305C00E94AB
:10510000DB240E940022F5CF80918E0E34E0839F35
:10511000F0011124EF56F14F11830083D383C28332
:105120009F5F90938F0E8F5F281739F080938E0EBC
:10513000DF91CF911F910F91089510928E0EF8CFAD
:1051400068E579E382E00C9406BD6DE579E381E0E2
:105150000C9406BD62E679E380E00C9406BD63E042
:1051600077E383E00C9406BDEF92FF920F931F93B9
:1051700084E9E82E8BE0F82E10E000E028E73FE01D
:105180004AE851E36DED7EE088E89FE00E9481A44B
:105190001F910F91FF90EF900895EF92FF920F9360
:1051A0001F938BEDE82E8EE0F82E10E000E028E251
:1051B0003FE048EE51E36DED7EE082EE9EE00E941E
:1051C00081A41F910F91FF90EF900895CF92DF92ED
:1051D000EF92FF920F931F93CF93DF93CDB7DEB77C
:1051E000CDB6DEB680918B076EE777E0882311F0AD
:1051F0006BE877E0FB0101900020E9F7CF01861B07
:10520000970B01962DB73EB7281B390B0FB6F894B4
:105210003EBF0FBE2DBF0DB71EB70F5F1F4F80E201
:10522000EDB7FEB78183C80101960E9405D78BEDCB
:10523000E82E8EE0F82E2BE43FE041E754E367E5EB
:105240007FE084E19FE00E9481A40FB6F894DEBE67
:105250000FBECDBEDF91CF911F910F91FF90EF90C8
:10526000DF90CF90089580914C02882341F06091A7
:1052700045047091460441E081E00C9438A3089500
:10528000CF92DF92EF92FF920F931F93CF93DF9312
:1052900000D000D01F921F92CDB7DEB78E010F5FF6
:1052A0001F4FD80130E020E0FB01E20FF31FE49133
:1052B000ED932F5F3F4F28303105B1F7877098E0AD
:1052C000899FB0011124606483EA9EE00E9482AB52
:1052D00083E790E00197F1F77801E8E0EE0EF11C2A
:1052E0008BE9C82ED12CF80161918F0183EA9EE0F1
:1052F0000E94DF8EC6010197F1F7E016F10699F7DB
:1053000028960FB6F894DEBF0FBECDBFDF91CF91C8
:105310001F910F91FF90EF90DF90CF900895CF9263
:10532000DF92EF92FF920F931F93CF93DF9300D002
:1053300000D0CDB7DEB78A0146E0469F9001479F77
:10534000300D1124BC01620F731F46E050E0CE0106
:1053500001960E94EECBC980DA80EB80FC80F801D8
:1053600040815181628173818FEF9FEFC416D50612
:10537000E606F70640F081E090E04C155D056E050D
:105380007F0508F080E026960FB6F894DEBF0FBECA
:10539000CDBFDF91CF911F910F91FF90EF90DF90E4
:1053A000CF9008950F931F93CF93DF93CDB7DEB7C0
:1053B0002E970FB6F894DEBF0FBECDBF8A011E86B2
:1053C0001D866F83788789879A872FEF2B876038B0
:1053D00071058105910538F483EA9EE00E94DF8E15
:1053E00081E090E02FC09E01235F3F4FAE01495FF7
:1053F0005F4F69EB70E082E795E10E94C39097FDF3
:105400002CC08D859E8526E0289FB001299F700DB8
:1054100011246E587A4E46E050E0CE0101960E946B
:10542000EECB6D8183EA9EE00E94DF8E0130110594
:10543000B9F26E816623A1F283EA9EE00E94DF8EBC
:1054400082E090E02E960FB6F894DEBF0FBECDBF7F
:10545000DF91CF911F910F9108959E01235F3F4FE0
:10546000AE01495F5F4F63E670E080E293E10E9426
:10547000C39097FD0BC08D859E8526E0289FB001C7
:10548000299F700D1124605E7C4EC5CF6FE3A4CFC1
:1054900080913B0390913C03009731F04AE050E04B
:1054A00070E060E00C94E2CA60E070E0CB01089527
:1054B00080913B0390913C03009731F04AE050E02B
:1054C00070E060E00C94B4C960E070E0CB01089536
:1054D0000E94582ACB0108950F931F93CF93809178
:1054E0003B0390913C030097E9F0FC018F01C191CF
:1054F0002C2F2F7D81F0C53411F0C536B9F7F80196
:10550000108270E060E00E9456C8F801C083CF911D
:105510001F910F91089570E060E0CF911F910F915E
:105520000C9456C860E070E0CB01F1CF0F930FB739
:105530000F9300916E000B7F00936E0078940F9391
:105540000BB70F930CB70F921F922F933F934F936C
:105550005F936F937F938F939F93AF93BF93EF93DB
:10556000FF9311240E94712EFF91EF91BF91AF9193
:105570009F918F917F916F915F914F913F912F916B
:105580001F900F900CBF0F910BBF0F910460F89408
:1055900000936E000F910FBF0F9118951092340574
:1055A0008091490290914A020F971816190614F437
:1055B00090E080E09093100E80930F0E0E9463AAFB
:1055C0001092110E2C980895BC0120910005309185
:1055D000010540910005509101052417350731F46C
:1055E00081E02617370709F080E008959A01F1CF8E
:1055F0000F930FB70F9300916E000F930B7F0093E3
:105600006E0000916F000D7F00936F000F930BB73A
:105610000F930CB70F921F922F933F934F935F936B
:105620006F937F938F939F93AF93BF93EF93FF936A
:1056300011240E94FD4DFF91EF91BF91AF919F9179
:105640008F917F916F915F914F913F912F911F901B
:105650000F900CBF0F910BBF0F910260F894009355
:105660006F000F9100936E000F910FBF0F9118956F
:105670008091B80580FF27C089988FEF8093AB0495
:105680008091B805869580FF21C08F9A8FEF809317
:10569000AC048091B8058695869580FF1AC08091EC
:1056A0000B018270809309018FEF8093AD0480918C
:1056B000B80586958695869580FF13C016988FEF5E
:1056C0008093AE040895899A81E0D8CF8F9881E0C5
:1056D000DECF80910B01809582708093090181E07B
:1056E000E4CF169A81E0ECCF2F923F924F925F92D7
:1056F0006F927F928F929F92AF92BF92CF92DF92E2
:10570000EF92FF920F931F93CF93DF93CDB7DEB746
:105710006A970FB6F894DEBF0FBECDBF9A8F898F00
:105720008B011A01DC01D6966D917D918D919C9132
:10573000D9970E94C3CC6B017C01F8012081318193
:10574000428153810E9424CD0E948AD42B013C01C6
:10575000D1012D913D914D915C91C701B6010E94FF
:1057600024CD0E948AD44B015C01C301B2010E9486
:105770001FD56D877E878F87988B68377105810568
:10578000910540F488E790E0A0E0B0E08D879E8727
:10579000AF87B88BC501B4010E941FD5698B7A8B86
:1057A0008B8B9C8B683771058105910540F488E7E8
:1057B00090E0A0E0B0E0898B9A8BAB8BBC8BE98D3D
:1057C000FA8DEE5BFF4F80819181A281B3818D8341
:1057D0009E83AF83B887BC01CD010E94C5CC69838D
:1057E0007A838B839C836D857E858F8598890E94C3
:1057F000C3CC69877A878B879C8720E030E0A9013A
:1058000069817A818B819C810E94BECC882309F4B6
:10581000A6C1A7019601C701B6010E9424CD4B0184
:105820005C0129853A854B855C85CA01B9010E94D6
:1058300024CD9B01AC01C501B4010E94ABD34B0147
:105840005C0129813A814B815C81CA01B9010E94C6
:10585000ACD39B01AC01C501B4010E94A6D40E9447
:105860008AD40E941FD52B013C016D817E818F81DE
:10587000988590958095709561957F4F8F4F9F4F3C
:105880000E94C5CC4B015C0169897A898B899C890E
:105890000E94C3CC6D837E838F83988720E030E0A5
:1058A000A901C501B4010E94BECC882309F45BC1E3
:1058B0002D813E814F815885CA01B9010E9424CDB6
:1058C0006D8B7E8B8F8B988FA7019601C701B601D8
:1058D0000E9424CD9B01AC016D897E898F89988DB2
:1058E0000E94ABD36B017C01A5019401C501B401F9
:1058F0000E94ACD39B01AC01C701B6010E94A6D4A3
:105900000E944ED5A98DBA8D95968D909D90AD90A3
:10591000BC90989775016401C418D508E608F7088B
:105920000E941FD5C61AD70AE80AF90AF7FE70C006
:1059300020E030E0A90169817A818B819C810E94FD
:10594000BECC882309F413C1C501B4010E94C3CCA5
:105950006B017C0129813A814B815C81CA01B901CB
:105960000E94ACD39B01AC01C701B6010E9424CDBB
:105970006B017C0129853A854B855C85CA01B9019B
:105980000E9424CD9B01AC01C701B6010E94ABD39C
:105990006B017C012D813E814F815885CA01B9017F
:1059A0000E9424CD9B01AC01C701B6010E94ACD37B
:1059B0006B017C0120E030E040E850E469817A81AD
:1059C0008B819C810E9424CD9B01AC01C701B60153
:1059D0000E94A6D40E948AD46B017C0120E030E0B2
:1059E000A9010E940CD618161CF0C12CD12C7601EE
:1059F000C701B6010E941FD52B013C0184149504F8
:105A0000A604B70410F424013501C12CD12C760171
:105A1000E98DFA8D41A652A663A674A6C40CD51CC6
:105A2000E61CF71CC5A6D6A6E7A6F0AA8D859E851E
:105A3000AF85B88982AF93AFA4AFB5AFFE96898921
:105A40009A89AB89BC8980839183A283B383E98DD2
:105A5000FA8DE25BFF4FD080DD2009F467C06D2D29
:105A600070E090E080E00E94C5CC4B015C01D80161
:105A70002D913D914D915C910E9424CD0E941FD5A6
:105A8000C62E2D2D261BE98DFA8DEF5AFF4F7F0173
:105A9000098D1A8D015B1F4F222309F46CC030E081
:105AA00050E040E0C301B2010E94ECD2D7012D9337
:105AB0003D934D935C931397F801C082D1012D91D2
:105AC0003D914D915C91C501B4010E9424CD0E948D
:105AD0001FD5C62E2D2D261BE98DFA8DEB5AFF4FB3
